{
    "contractName": "AssetManagement",
    "abi": [
        {
            "anonymous": false,
            "inputs": [
                {
                    "indexed": true,
                    "internalType": "uint256",
                    "name": "_id",
                    "type": "uint256"
                },
                {
                    "indexed": true,
                    "internalType": "address",
                    "name": "_seller",
                    "type": "address"
                },
                {
                    "indexed": true,
                    "internalType": "address",
                    "name": "_buyer",
                    "type": "address"
                },
                {
                    "indexed": false,
                    "internalType": "string",
                    "name": "_name",
                    "type": "string"
                },
                {
                    "indexed": false,
                    "internalType": "uint256",
                    "name": "_price",
                    "type": "uint256"
                }
            ],
            "name": "LogBuyArticle",
            "type": "event"
        },
        {
            "anonymous": false,
            "inputs": [
                {
                    "indexed": true,
                    "internalType": "uint256",
                    "name": "_id",
                    "type": "uint256"
                },
                {
                    "indexed": true,
                    "internalType": "address",
                    "name": "_seller",
                    "type": "address"
                },
                {
                    "indexed": false,
                    "internalType": "string",
                    "name": "_name",
                    "type": "string"
                },
                {
                    "indexed": false,
                    "internalType": "uint256",
                    "name": "_price",
                    "type": "uint256"
                }
            ],
            "name": "LogSellArticle",
            "type": "event"
        },
        {
            "inputs": [
                {
                    "internalType": "uint256",
                    "name": "",
                    "type": "uint256"
                }
            ],
            "name": "articles",
            "outputs": [
                {
                    "internalType": "uint256",
                    "name": "id",
                    "type": "uint256"
                },
                {
                    "internalType": "address payable",
                    "name": "seller",
                    "type": "address"
                },
                {
                    "internalType": "address",
                    "name": "buyer",
                    "type": "address"
                },
                {
                    "internalType": "string",
                    "name": "name",
                    "type": "string"
                },
                {
                    "internalType": "string",
                    "name": "description",
                    "type": "string"
                },
                {
                    "internalType": "uint256",
                    "name": "price",
                    "type": "uint256"
                }
            ],
            "stateMutability": "view",
            "type": "function"
        },
        {
            "inputs": [
                {
                    "internalType": "uint256",
                    "name": "_id",
                    "type": "uint256"
                }
            ],
            "name": "buyArticle",
            "outputs": [],
            "stateMutability": "payable",
            "type": "function"
        },
        {
            "inputs": [
                {
                    "internalType": "string",
                    "name": "_name",
                    "type": "string"
                },
                {
                    "internalType": "string",
                    "name": "_description",
                    "type": "string"
                },
                {
                    "internalType": "uint256",
                    "name": "_price",
                    "type": "uint256"
                }
            ],
            "name": "createAsset",
            "outputs": [],
            "stateMutability": "nonpayable",
            "type": "function"
        },
        {
            "inputs": [],
            "name": "getArticlesForSale",
            "outputs": [
                {
                    "internalType": "uint256[]",
                    "name": "",
                    "type": "uint256[]"
                }
            ],
            "stateMutability": "view",
            "type": "function"
        },
        {
            "inputs": [],
            "name": "getNumberOfArticles",
            "outputs": [
                {
                    "internalType": "uint256",
                    "name": "",
                    "type": "uint256"
                }
            ],
            "stateMutability": "view",
            "type": "function"
        },
        {
            "inputs": [],
            "name": "getNumberOfSellingArticles",
            "outputs": [
                {
                    "internalType": "uint256",
                    "name": "",
                    "type": "uint256"
                }
            ],
            "stateMutability": "view",
            "type": "function"
        },
        {
            "inputs": [],
            "name": "getOwnedAssets",
            "outputs": [
                {
                    "internalType": "uint256[]",
                    "name": "",
                    "type": "uint256[]"
                }
            ],
            "stateMutability": "view",
            "type": "function"
        },
        {
            "inputs": [
                {
                    "internalType": "uint256",
                    "name": "",
                    "type": "uint256"
                }
            ],
            "name": "ownArticles",
            "outputs": [
                {
                    "internalType": "uint256",
                    "name": "id",
                    "type": "uint256"
                },
                {
                    "internalType": "address payable",
                    "name": "seller",
                    "type": "address"
                },
                {
                    "internalType": "address",
                    "name": "buyer",
                    "type": "address"
                },
                {
                    "internalType": "string",
                    "name": "name",
                    "type": "string"
                },
                {
                    "internalType": "string",
                    "name": "description",
                    "type": "string"
                },
                {
                    "internalType": "uint256",
                    "name": "price",
                    "type": "uint256"
                }
            ],
            "stateMutability": "view",
            "type": "function"
        },
        {
            "inputs": [
                {
                    "internalType": "uint256",
                    "name": "_id",
                    "type": "uint256"
                }
            ],
            "name": "removeFromMarket",
            "outputs": [],
            "stateMutability": "nonpayable",
            "type": "function"
        },
        {
            "inputs": [
                {
                    "internalType": "string",
                    "name": "_name",
                    "type": "string"
                },
                {
                    "internalType": "string",
                    "name": "_description",
                    "type": "string"
                },
                {
                    "internalType": "uint256",
                    "name": "_price",
                    "type": "uint256"
                }
            ],
            "name": "sellArticle",
            "outputs": [],
            "stateMutability": "nonpayable",
            "type": "function"
        },
        {
            "inputs": [
                {
                    "internalType": "uint256",
                    "name": "_articleId",
                    "type": "uint256"
                },
                {
                    "internalType": "uint256",
                    "name": "_sellPrice",
                    "type": "uint256"
                }
            ],
            "name": "sellOwnArticle",
            "outputs": [],
            "stateMutability": "nonpayable",
            "type": "function"
        },
        {
            "inputs": [
                {
                    "internalType": "uint256",
                    "name": "_id",
                    "type": "uint256"
                }
            ],
            "name": "sentToMarket",
            "outputs": [],
            "stateMutability": "nonpayable",
            "type": "function"
        }
    ],
    "bytecode": "608060405234801561001057600080fd5b50611824806100206000396000f3fe6080604052600436106100a75760003560e01c806389da85d31161006457806389da85d3146102cf578063d2609515146102f6578063e8544e961461042e578063edcfafe61461045e578063f2bdc03514610488578063f80d8f29146105c0576100a7565b80631cc4baa8146100ac5780632985bc94146100cb5780635c1375ad146101305780636457bd041461015a5780637f6be3da1461018457806383bf44f114610199575b600080fd5b6100c9600480360360208110156100c257600080fd5b50356105d5565b005b3480156100d757600080fd5b506100e06109d2565b60408051602080825283518183015283519192839290830191858101910280838360005b8381101561011c578181015183820152602001610104565b505050509050019250505060405180910390f35b34801561013c57600080fd5b506100c96004803603602081101561015357600080fd5b5035610b44565b34801561016657600080fd5b506100c96004803603602081101561017d57600080fd5b5035610cf9565b34801561019057600080fd5b506100e0610ddc565b3480156101a557600080fd5b506101c3600480360360208110156101bc57600080fd5b5035610f17565b60405180878152602001866001600160a01b03168152602001856001600160a01b031681526020018060200180602001848152602001838103835286818151815260200191508051906020019080838360005b8381101561022e578181015183820152602001610216565b50505050905090810190601f16801561025b5780820380516001836020036101000a031916815260200191505b50838103825285518152855160209182019187019080838360005b8381101561028e578181015183820152602001610276565b50505050905090810190601f1680156102bb5780820380516001836020036101000a031916815260200191505b509850505050505050505060405180910390f35b3480156102db57600080fd5b506102e461106c565b60408051918252519081900360200190f35b34801561030257600080fd5b506100c96004803603606081101561031957600080fd5b810190602081018135600160201b81111561033357600080fd5b82018360208201111561034557600080fd5b803590602001918460018302840111600160201b8311171561036657600080fd5b91908080601f0160208091040260200160405190810160405280939291908181526020018383808284376000920191909152509295949360208101935035915050600160201b8111156103b857600080fd5b8201836020820111156103ca57600080fd5b803590602001918460018302840111600160201b831117156103eb57600080fd5b91908080601f0160208091040260200160405190810160405280939291908181526020018383808284376000920191909152509295505091359250611072915050565b34801561043a57600080fd5b506100c96004803603604081101561045157600080fd5b50803590602001356111e8565b34801561046a57600080fd5b506101c36004803603602081101561048157600080fd5b5035611463565b34801561049457600080fd5b506100c9600480360360608110156104ab57600080fd5b810190602081018135600160201b8111156104c557600080fd5b8201836020820111156104d757600080fd5b803590602001918460018302840111600160201b831117156104f857600080fd5b91908080601f0160208091040260200160405190810160405280939291908181526020018383808284376000920191909152509295949360208101935035915050600160201b81111561054a57600080fd5b82018360208201111561055c57600080fd5b803590602001918460018302840111600160201b8311171561057d57600080fd5b91908080601f01602080910402602001604051908101604052809392919081815260200183838082843760009201919091525092955050913592506114ed915050565b3480156105cc57600080fd5b506102e46115b6565b6000600154116106165760405162461bcd60e51b81526004018080602001828103825260248152602001806117876024913960400191505060405180910390fd5b60008111801561062857506001548111155b6106635760405162461bcd60e51b81526004018080602001828103825260238152602001806117cc6023913960400191505060405180910390fd5b6000818152600260208190526040909120908101546001600160a01b0316156106d3576040805162461bcd60e51b815260206004820152601860248201527f41727469636c652077617320616c726561647920736f6c640000000000000000604482015290519081900360640190fd5b80546106de57600080fd5b60018101546001600160a01b031633141561072a5760405162461bcd60e51b81526004018080602001828103825260218152602001806117ab6021913960400191505060405180910390fd5b3481600501541461076c5760405162461bcd60e51b815260040180806020018281038252602e81526020018061170c602e913960400191505060405180910390fd5b6000805480835580825260036020819052604090922090815560018084015481830180546001600160a01b03199081166001600160a01b039384161790915560028087015481860180549093169316929092179055838501805486956107e59490860193908216156101000260001901909116046115bc565b506004820181600401908054600181600116156101000203166002900461080d9291906115bc565b5060059182015491015560018101546040516001600160a01b03909116903480156108fc02916000818181858888f19350505050158015610852573d6000803e3d6000fd5b50600280820180546001600160a01b031990811633908117835560018086018054909316909117825560008054820190559154905460058501546040805160208101839052818152600388018054968716156101000260001901909616969096049086018190526001600160a01b0393841695929093169387937f5d28bc06e6f0c45405abfe77bd77236c767f9bd9d044ae2d954a415a2b4823e0939192919081906060820190859080156109485780601f1061091d57610100808354040283529160200191610948565b820191906000526020600020905b81548152906001019060200180831161092b57829003601f168201915b5050935050505060405180910390a4600082815260026020819052604082208281556001810180546001600160a01b03199081169091559181018054909216909155906109986003830182611641565b6109a6600483016000611641565b5060006005919091018190559182525060026020526040902060010180546001600160a01b0319169055565b606060005460001415610a15576000805b50604051908082528060200260200182016040528015610a0d578160200160208202803683370190505b509050610b41565b606060005467ffffffffffffffff81118015610a3057600080fd5b50604051908082528060200260200182016040528015610a5a578160200160208202803683370190505b509050600060015b6000548111610ab65760008181526003602052604090205415610aae576000818152600360205260409020548351849084908110610a9c57fe5b60209081029190910101526001909101905b600101610a62565b5060608167ffffffffffffffff81118015610ad057600080fd5b50604051908082528060200260200182016040528015610afa578160200160208202803683370190505b50905060005b82811015610b3b57838181518110610b1457fe5b6020026020010151828281518110610b2857fe5b6020908102919091010152600101610b00565b50925050505b90565b6000805411610b845760405162461bcd60e51b815260040180806020018281038252602a81526020018061173a602a913960400191505060405180910390fd5b600081118015610b9657506000548111155b610bd15760405162461bcd60e51b81526004018080602001828103825260238152602001806117646023913960400191505060405180910390fd5b60008181526003602052604090208054610bea57600080fd5b600180548101815560008054808455825482526002602081905260409092209081558383015481840180546001600160a01b039283166001600160a01b0319918216179091558386015483850180549190931691161790556003808501805486959394610c6a9493860193610100908316150260001901909116046115bc565b5060048201816004019080546001816001161561010002031660029004610c929291906115bc565b50600591820154910155600082815260036020819052604082208281556001810180546001600160a01b031990811690915560028201805490911690559190610cdd90830182611641565b610ceb600483016000611641565b600582016000905550505050565b6000818152600260205260409020600101546001600160a01b03163314610d1f57600080fd5b600080546001908101808355838352600260208181526040808620938652600391829052909420825481558284015481850180546001600160a01b039283166001600160a01b0319918216179091558484015483850180549190931691161790558483018054939586959294610da6949186019361010090821615026000190116046115bc565b5060048201816004019080546001816001161561010002031660029004610dce9291906115bc565b506005918201549101555050565b606060015460001415610df1576000806109e3565b606060015467ffffffffffffffff81118015610e0c57600080fd5b50604051908082528060200260200182016040528015610e36578160200160208202803683370190505b509050600060015b6001548111610e925760008181526002602052604090205415610e8a576000818152600260205260409020548351849084908110610e7857fe5b60209081029190910101526001909101905b600101610e3e565b5060608167ffffffffffffffff81118015610eac57600080fd5b50604051908082528060200260200182016040528015610ed6578160200160208202803683370190505b50905060005b82811015610b3b57838181518110610ef057fe5b6020026020010151828281518110610f0457fe5b6020908102919091010152600101610edc565b6003602081815260009283526040928390208054600180830154600280850154968501805489516101009582161595909502600019011691909104601f810187900487028401870190985287835292966001600160a01b03918216969190911694919291830182828015610fcc5780601f10610fa157610100808354040283529160200191610fcc565b820191906000526020600020905b815481529060010190602001808311610faf57829003601f168201915b5050505060048301805460408051602060026001851615610100026000190190941693909304601f810184900484028201840190925281815294959493509083018282801561105c5780601f106110315761010080835404028352916020019161105c565b820191906000526020600020905b81548152906001019060200180831161103f57829003601f168201915b5050505050908060050154905086565b60005490565b6001805481018082556040805160c0810182528281523360208083019182526000838501818152606085018b8152608086018b905260a086018a905296825260028084529590912084518155925196830180546001600160a01b039889166001600160a01b03199182161790915590519483018054959097169416939093179094559151805192939261110b9260038501920190611688565b5060808201518051611127916004840191602090910190611688565b5060a08201518160050155905050336001600160a01b03166001547fe2ebb0c522a8b90a93f45a5dfd3c0e0516b81519fdf199efe51c474642fe8cec85846040518080602001838152602001828103825284818151815260200191508051906020019080838360005b838110156111a8578181015183820152602001611190565b50505050905090810190601f1680156111d55780820380516001836020036101000a031916815260200191505b50935050505060405180910390a3505050565b600082815260036020526040902060018101546001600160a01b031633141561145e576001805481018082556040805160c081018252918252838301546001600160a01b03166020808401919091526000838301526003850180548351600261010097831615979097026000190190911695909504601f810183900483028601830190935282855292936060850193909290918301828280156112cc5780601f106112a1576101008083540402835291602001916112cc565b820191906000526020600020905b8154815290600101906020018083116112af57829003601f168201915b505050918352505060048301805460408051602060026001851615610100026000190190941693909304601f81018490048402820184019092528181529382019392918301828280156113605780601f1061133557610100808354040283529160200191611360565b820191906000526020600020905b81548152906001019060200180831161134357829003601f168201915b505050918352505060209081018490526001805460009081526002808452604091829020855181558585015193810180546001600160a01b03199081166001600160a01b0396871617909155928601519181018054909316919093161790556060830151805191926113da92600385019290910190611688565b50608082015180516113f6916004840191602090910190611688565b5060a09190910151600590910155600083815260036020819052604082206001810180546001600160a01b03199081169091558382556002820180549091169055919061144590830182611641565b611453600483016000611641565b600582016000905550505b505050565b60026020818152600092835260409283902080546001808301548386015460038501805489516101009582161595909502600019011697909704601f810187900487028401870190985287835292966001600160a01b0391821696919093169491929091830182828015610fcc5780601f10610fa157610100808354040283529160200191610fcc565b6000805460019081018083556040805160c081018252828152336020808301918252828401878152606084018b8152608085018b905260a085018a905295885260038083529490972083518155915195820180546001600160a01b039788166001600160a01b0319918216179091559651600283018054919097169716969096179094559151805192946115879392850192910190611688565b50608082015180516115a3916004840191602090910190611688565b5060a08201518160050155905050505050565b60015490565b828054600181600116156101000203166002900490600052602060002090601f016020900481019282601f106115f55780548555611631565b8280016001018555821561163157600052602060002091601f016020900482015b82811115611631578254825591600101919060010190611616565b5061163d9291506116f6565b5090565b50805460018160011615610100020316600290046000825580601f106116675750611685565b601f01602090049060005260206000209081019061168591906116f6565b50565b828054600181600116156101000203166002900490600052602060002090601f016020900481019282601f106116c957805160ff1916838001178555611631565b82800160010185558215611631579182015b828111156116315782518255916020019190600101906116db565b5b8082111561163d57600081556001016116f756fe56616c75652070726f766964656420646f6573206e6f74206d61746368207072696365206f662061727469636c6554686572652073686f756c64206265206174206c65617374206f6e65206f776e65642061727469636c6541727469636c652077697468207468697320696420646f6573206e6f7420657869747354686572652073686f756c64206265206174206c65617374206f6e652061727469636c6553656c6c65722063616e6e6f742062757920686973206f776e2061727469636c6541727469636c652077697468207468697320696420646f6573206e6f74206578697374a2646970667358221220558ebf636f85ffb12c4f02789da1e7f951935504d1b07ade3f96dc9ba4e3046564736f6c63430007000033",
    "sourcePath": "c:/Users/RazerBlade/ChainSkills/Training/chainlist/contracts/AssetManagement.sol",
    "compiler": {
        "name": "solc",
        "version": "0.7.0+commit.9e61f92b"
    },
    "functionHashes": {
        "articles(uint256)": "edcfafe6",
        "buyArticle(uint256)": "1cc4baa8",
        "createAsset(string,string,uint256)": "f2bdc035",
        "getArticlesForSale()": "7f6be3da",
        "getNumberOfArticles()": "89da85d3",
        "getNumberOfSellingArticles()": "f80d8f29",
        "getOwnedAssets()": "2985bc94",
        "ownArticles(uint256)": "83bf44f1",
        "removeFromMarket(uint256)": "6457bd04",
        "sellArticle(string,string,uint256)": "d2609515",
        "sellOwnArticle(uint256,uint256)": "e8544e96",
        "sentToMarket(uint256)": "5c1375ad"
    },
    "gasEstimates": {
        "creation": {
            "codeDepositCost": "1236000",
            "executionCost": "1288",
            "totalCost": "1237288"
        },
        "external": {
            "articles(uint256)": "infinite",
            "buyArticle(uint256)": "infinite",
            "createAsset(string,string,uint256)": "infinite",
            "getArticlesForSale()": "infinite",
            "getNumberOfArticles()": "998",
            "getNumberOfSellingArticles()": "1108",
            "getOwnedAssets()": "infinite",
            "ownArticles(uint256)": "infinite",
            "removeFromMarket(uint256)": "infinite",
            "sellArticle(string,string,uint256)": "infinite",
            "sellOwnArticle(uint256,uint256)": "infinite",
            "sentToMarket(uint256)": "infinite"
        }
    }
}